{
  "_format": "hh-sol-artifact-1",
  "contractName": "MyContract",
  "sourceName": "contracts/MyContract.sol",
  "abi": [
    {
      "inputs": [],
      "stateMutability": "nonpayable",
      "type": "constructor"
    },
    {
      "anonymous": false,
      "inputs": [
        {
          "indexed": false,
          "internalType": "uint256",
          "name": "newCount",
          "type": "uint256"
        }
      ],
      "name": "CountChanged",
      "type": "event"
    },
    {
      "inputs": [],
      "name": "decrement",
      "outputs": [],
      "stateMutability": "nonpayable",
      "type": "function"
    },
    {
      "inputs": [],
      "name": "getCount",
      "outputs": [
        {
          "internalType": "uint256",
          "name": "",
          "type": "uint256"
        }
      ],
      "stateMutability": "view",
      "type": "function"
    },
    {
      "inputs": [],
      "name": "increment",
      "outputs": [],
      "stateMutability": "nonpayable",
      "type": "function"
    }
  ],
  "bytecode": "0x608060405234801561001057600080fd5b50600080556101aa806100246000396000f3fe608060405234801561001057600080fd5b50600436106100415760003560e01c80632baeceb714610046578063a87d942c14610050578063d09de08a14610065575b600080fd5b61004e61006d565b005b60005460405190815260200160405180910390f35b61004e61011d565b60008054116100ce5760405162461bcd60e51b8152602060048201526024808201527f436f756e7465723a2063616e6e6f742064656372656d656e742062656c6f77206044820152637a65726f60e01b606482015260840160405180910390fd5b60016000808282546100e09190610145565b90915550506000546040519081527f0ef4482aceb854636f33f9cd319f9e1cd6fe3aa2e60523f3583c287b893824459060200160405180910390a1565b60016000808282546100e0919061015c565b634e487b7160e01b600052601160045260246000fd5b6000828210156101575761015761012f565b500390565b6000821982111561016f5761016f61012f565b50019056fea26469706673582212205bdd2f31553773d1c9fa3b82ce3530aa8958e61c5b5e0caf052d0a18d95b2b4664736f6c63430008090033",
  "linkReferences": {},
  "deployedLinkReferences": {}
}